:020000040000FA
:100000000C945D000C9485000C9485000C94850084
:100010000C9485000C9485000C9485000C9485004C
:100020000C9485000C9485000C9485000C9485003C
:100030000C9485000C9485000C9485000C9485002C
:100040000C9477030C9485000C94E7030C94C10383
:100050000C9485000C9485000C9485000C9485000C
:100060000C9485000C94850000000008000201003B
:100070000003040700000000000000000000000072
:10008000250028002B0000000000240027002A0083
:10009000040404040404040402020202020203032E
:1000A0000303030301020408102040800102040836
:1000B00010200102040810205F0811241FBECFEF9A
:1000C000D8E0DEBFCDBF26E0A0E0B2E001C01D92C7
:1000D000A63BB207E1F712E0A0E0B1E0E0EAFFE101
:1000E00002C005900D92A030B107D9F710E0CDE520
:1000F000D0E004C02197FE010E94FC0ACC35D10754
:10010000C9F70E9419040C94CE0F0C94000090E0E3
:10011000FC01EC55FF4F249180579F4FFC018491C7
:10012000882399F090E0880F991FFC01EA57FF4F50
:10013000A591B491FC01E458FF4F859194918FB73C
:10014000F894EC91E22BEC938FBF08958F929F92DD
:10015000AF92BF92CF92DF92EF92FF927B01BC01F0
:10016000990F880B990B0E948E084B015C01B70117
:10017000FF0C880B990B0E948E089B01AC01C501F6
:10018000B4010E94ED0820E030E04FE753E40E9404
:100190004F0A6B017C0120E030E0A9010E94F70AC0
:1001A00020E030E040E05FE387FD10C0C701B6010A
:1001B0000E94E3090E94C10ACB01FF90EF90DF90FB
:1001C000CF90BF90AF909F908F900895C701B601D8
:1001D0000E94E209EFCF90E0FC01E859FF4F249123
:1001E000FC01EC55FF4F3491FC01E057FF4FE491C7
:1001F000EE23C9F0222339F0233001F1A8F4213095
:1002000019F1223029F1F0E0EE0FFF1FE458FF4F03
:10021000A591B4918FB7F894EC91611126C03095F7
:100220003E233C938FBF08952730A9F02830C9F0B2
:10023000243049F7809180008F7D03C08091800039
:100240008F7780938000DFCF84B58F7784BDDBCF3D
:1002500084B58F7DFBCF8091B0008F778093B00005
:10026000D2CF8091B0008F7DF9CF3E2BDACF1F9394
:10027000CF93DF93182FEB010E948700209739F46A
:1002800060E0812FDF91CF911F910C94EB00CF3F65
:10029000D10511F461E0F5CFE12FF0E0E859FF4F0F
:1002A000E491E33031F140F4E130B1F0E230E1F0DB
:1002B000C038D1057CF7E4CFE73029F1E83059F1B7
:1002C000E430B1F780918000806280938000D09309
:1002D0008B00C0938A0004C084B5806884BDC7BD0C
:1002E000DF91CF911F91089584B5806284BDC8BD10
:1002F000F7CF80918000806880938000D093890040
:10030000C0938800EDCF8091B00080688093B000EA
:10031000C093B300E5CF8091B00080628093B000BD
:10032000C093B400DDCFAF92BF92CF92DF92EF9235
:10033000FF920F931F93CF93DF936C017B018B018F
:10034000040F151FEB015E01AE18BF08C017D107DF
:1003500059F06991D601ED91FC910190F081E02D69
:10036000C6010995892B79F7C501DF91CF911F91BE
:100370000F91FF90EF90DF90CF90BF90AF900895D6
:10038000FC01538D448D252F30E0842F90E0821B9B
:10039000930B541710F0CF96089501970895FC0120
:1003A000918D828D981761F0A28DAE0FBF2FB11D78
:1003B0005D968C91928D9F5F9F73928F90E00895D0
:1003C0008FEF9FEF0895FC01918D828D981731F08A
:1003D000828DE80FF11D858D90E008958FEF9FEFDE
:1003E0000895FC01918D228D892F90E0805C9F4FB4
:1003F000821B91098F739927089585E196E00E94E9
:10040000F10121E0892B09F420E0822F089580E09A
:1004100090E0892B29F00E94FD0181110C940000CD
:100420000895FC01A48DA80FB92FB11DA35ABF4F89
:100430002C91848D90E001968F739927848FA689E3
:10044000B7892C93A089B1898C91837080648C9337
:10045000938D848D981306C00288F389E02D8081E6
:100460008F7D80830895EF92FF920F931F93CF9318
:10047000DF93EC0181E0888F9B8D8C8D98131AC0DF
:10048000E889F989808185FF15C09FB7F894EE89C6
:10049000FF896083E889F989808183708064808323
:1004A0009FBF81E090E0DF91CF911F910F91FF906E
:1004B000EF900895F62E0B8D10E00F5F1F4F0F7316
:1004C0001127E02E8C8D8E110CC00FB607FCFACFD1
:1004D000E889F989808185FFF5CFCE010E9411025C
:1004E000F1CFEB8DEC0FFD2FF11DE35AFF4FF082A2
:1004F0009FB7F8940B8FEA89FB8980818062CFCF08
:10050000CF93DF93EC01888D8823B9F0AA89BB894A
:10051000E889F9898C9185FD03C0808186FD0DC035
:100520000FB607FCF7CF8C9185FFF2CF808185FF56
:10053000EDCFCE010E941102E9CFDF91CF91089556
:10054000FC0101900020E9F73197AF01481B590BDE
:10055000BC0185E196E00C949301CF93DF93CDB776
:10056000DEB79E01275F3F4F4F81588560E074E002
:1005700085E192E00E94240D89E191E00E94A002B1
:1005800085E192E00E94A00286EC91E00E94A00228
:10059000DF91CF910895FC0180819181009711F046
:1005A0000C949E0B0895CF92DF92EF92FF920F93DF
:1005B0001F93CF93DF93CDB7DEB760970FB6F89454
:1005C000DEBF0FBECDBF8C01FB0185818F9384817F
:1005D0008F9383818F9382818F9381818F93808189
:1005E0008F938EE191E09F938F931F9280E18F9381
:1005F0009E012F5F3F4F69013F932F930E94F40CA0
:10060000F801118210821382128215821482F6017F
:1006100001900020E9F731977F01EC18FD08B70140
:100620006F5F7F4F90E080E00E94270C0FB6F89438
:10063000DEBF0FBECDBFF801009799F09183808394
:10064000F382E28224813581232B11F4FC01108294
:10065000F801F582E482B601808191810E94ED0C5F
:100660000DC080819181009711F00E949E0BF801CE
:10067000118210821582148213821282C801609640
:100680000FB6F894DEBF0FBECDBFDF91CF911F91A3
:100690000F91FF90EF90DF90CF9008950F931F93ED
:1006A000CF93DF9300D000D000D0CDB7DEB78C0160
:1006B000FB012281338184819581408151815A835C
:1006C00049833C832B839E838D83BE016F5F7F4F65
:1006D000C8010E94D302C80126960FB6F894DEBF67
:1006E0000FBECDBFDF91CF911F910F9108951F9243
:1006F0000F920FB60F9211242F933F938F939F93D6
:10070000AF93BF938091110290911202A0911302B6
:10071000B09114023091100223E0230F2D3758F5C9
:100720000196A11DB11D2093100280931102909398
:100730001202A0931302B093140280910C029091C4
:100740000D02A0910E02B0910F020196A11DB11DE4
:1007500080930C0290930D02A0930E02B0930F02AF
:10076000BF91AF919F918F913F912F910F900FBEAD
:100770000F901F90189526E8230F0296A11DB11D1A
:10078000D2CF1F920F920FB60F9211242F933F9347
:100790004F935F936F937F938F939F93AF93BF9389
:1007A000EF93FF9385E196E00E941102FF91EF9194
:1007B000BF91AF919F918F917F916F915F914F9179
:1007C0003F912F910F900FBE0F901F9018951F9281
:1007D0000F920FB60F9211242F938F939F93EF9345
:1007E000FF93E0912506F09126068081E0912B068B
:1007F000F0912C0682FD1BC0908180912E068F5FA8
:100800008F7320912F06821741F0E0912E06F0E0C1
:10081000EB5EF94F958F80932E06FF91EF919F919C
:100820008F912F910F900FBE0F901F901895808180
:10083000F4CFCF93DF93CDB7DEB768970FB6F894B8
:10084000DEBF0FBECDBF789484B5826084BD84B511
:10085000816084BD85B5826085BD85B5816085BDBB
:1008600080916E00816080936E0010928100809173
:1008700081008260809381008091810081608093FB
:100880008100809180008160809380008091B10020
:1008900084608093B1008091B00081608093B0004B
:1008A00080917A00846080937A0080917A008260DF
:1008B00080937A0080917A00816080937A008091A1
:1008C0007A00806880937A001092C10082E390E001
:1008D0000E94020B8C0183E090E0D80111969C935A
:1008E0008E9325E030E013963C932E93129726E0EA
:1008F00030E015963C932E93149716961C921697FB
:1009000018969C938E93179784EF91E0A0E0B0E047
:10091000F80181879287A387B487FF24F394F58633
:1009200017861686118A108A138A128A80E8848BA9
:10093000158A168A178A108E118E128E138E148EB7
:10094000158E178E168E11A210A213A212A215A236
:1009500014A217A216A211A610A613A612A615A6D7
:1009600014A617A616A6F0AAF1AAE0912506F09102
:10097000260682E08083E0912106F0912206108213
:10098000E0912306F091240680E1808310922D06E9
:10099000E0912906F0912A0686E08083E0912706FF
:1009A000F0912806808180618083E0912706F09194
:1009B0002806808188608083E0912706F0912806D0
:1009C000808180688083E0912706F09128068081ED
:1009D0008F7D808382E491E09F938F9386EB91E0FB
:1009E0009F938F931F921F920E94AD02D8018C910A
:1009F0000E948700F80182810E948700D801149626
:100A00008C910E948700F801F58610930B020093E9
:100A10000A020F900F900F900F900F900F909E0171
:100A20002F5F3F4F39011E0137E0230E311C442454
:100A30004A94512C00910A0210910B02D8011D9684
:100A40008C91882309F491C08FB7F894C09011025B
:100A5000D0901202E0901302F09014028FBF8091A8
:100A6000060290910702A0910802B0910902460186
:100A70005701881A990AAA0ABB0AD501C401F801CC
:100A8000418552856385748584179507A607B70746
:100A900008F46BC0C0920602D0920702E0920802EE
:100AA000F0920902BF93AF929F938F92FF92EF92C1
:100AB000DF92CF9265E6862E61E0962E9F928F920E
:100AC0001F921F920E94AD020FB6F894DEBF0FBEB8
:100AD000CDBFD80117968D919C91189782309105C2
:100AE00009F4D3C08330910509F475C1019709F465
:100AF00049C0B801625F7F4FC3010E944E037F92DD
:100B00006F9288E791E09F938F9387E891E09F939E
:100B10008F931F921F920E94AD02C3010E94CB02CD
:100B2000F8017685678550894189328923890FB616
:100B3000F894DEBF0FBECDBFD801D0968C91811145
:100B4000CEC1E9EBF1E0FF93EF9354ECA52E51E019
:100B5000B52EBF92AF921F921F920E94AD020F90CE
:100B60000F900F900F900F900F9080E090E0892BE6
:100B700009F460CF0E94FD01882309F458CF0E9438
:100B8000000055CFD1968C91D197882341F086E013
:100B9000F8013E965E9601900D928A95E1F780915C
:100BA000050240910102509102026091030270918E
:100BB000040246015701841A950AA60AB70AB5012C
:100BC000A401882399F0D8015996CD90DD90ED903D
:100BD000FC905C974C155D056E057F05C8F430E010
:100BE00020E050E040E070E060E0A6CFF8018588AA
:100BF0009688A788B08C481559056A057B0578F357
:100C0000C0920102D0920202E0920302F09204022A
:100C100091E0892780930502B801625E7F4FC3018E
:100C20000E944E0380910502882361F183E391E0E5
:100C30007F926F929F938F938EE791E09F938F9314
:100C400084E891E09F938F931F921F920E94AD02C0
:100C5000C3010E94CB02D8015E967C915E975F969D
:100C60006C915F9790965C91909791964C9191972B
:100C700092963C91929793962C91939781E0D0967F
:100C80008C9355CF86E391E0D3CFD1968C91D197B9
:100C9000882341F086E0F8013E96949601900D92EB
:100CA0008A95E1F7E0910001D80194966D917C91CD
:100CB00095975D968C915D97082E000C990B9696F2
:100CC0004D915C91979798962D913C919997E7FF5C
:100CD00026C0681B790B95967C936E939497481B5E
:100CE000590B97965C934E939697281B390B9996C0
:100CF0003C932E939897861797071CF462307105E2
:100D000054F5841795071CF44230510524F58217D9
:100D100093071CF422303105F4F4E1E01CC0680FA5
:100D2000791F95967C936E939497480F591F9796C9
:100D30005C934E939697280F391F99963C932E9368
:100D40009897681779073CF04817590724F0281737
:100D500039070CF0EFEFE0930001B8016C5D7F4FB5
:100D6000C3010E944E03F801258D422F022E000C74
:100D7000550B8091000118165CF58AE391E07F9293
:100D80006F925F932F939F938F938EE891E09F9341
:100D90008F9384E991E09F938F931F921F920E94FB
:100DA000AD02C3010E94CB02D80194967C91949726
:100DB00095966C91959796965C91969797964C918F
:100DC000979798963C91989799962C91999756CF8A
:100DD0008DE391E0D4CFD1968C91D197882341F0C7
:100DE00086E0F8013E969A9601900D928A95E1F779
:100DF00080910002F801258D280F8095853508F037
:100E000048C0F3E08F9FA0011124D8019B965C930A
:100E10004E939A97382F4DEF4303C0011124815010
:100E20009F4F9D969C938E939C979F961C921E928B
:100E30009E9720930002B801665D7F4FC3010E9418
:100E40004E037F926F92D8015D968C91282F082EC9
:100E5000000C330B3F938F93809100021F928F936E
:100E600082EA91E09F938F938BEA91E09F938F9317
:100E70001F921F920E94AD02C3010E94CB02F80193
:100E800072A563A554A545A536A527A581E080AB2D
:100E90004ECE8A3A98F48555682F3DEF3603A0016F
:100EA000112441505F4F53A742A715A614A6B3E0E3
:100EB0008B9FC001112497A786A7BBCF8A5A13A680
:100EC00012A6B3E08B9FA001112455A744A7382F89
:100ED0004DEF4303C001112481509F4FECCF872F6A
:100EE000962F8F3F910519F014F08FEF90E097FF48
:100EF00002C090E080E0C52ED42E4FEFC416D1047E
:100F000021F01CF0CC24CA94D12CD7FE02C0D12CE5
:100F1000C12CE32EF22E5FEFE516F10421F01CF058
:100F2000EE24EA94F12CF7FE02C0F12CE12C9C8B0C
:100F30008B8BDE8ACD8AF88EEF8AD8015496AC90DE
:100F4000B12CB5010E94A6004C01B501C6010E945A
:100F5000A6006C01B501C7010E94A6009E868D8681
:100F6000D88ACF869A8B898BBE01635F7F4FC3017E
:100F70000E94D302BE016D5E7F4FC1010E94D30269
:100F80007F926F923F922F92E9ECF1E0FF93EF9303
:100F90001F921F920E94AD02C1010E94CB02C301A9
:100FA0000E94CB020FB6F894DEBF0FBECDBFD801B2
:100FB00016962C918D859E85222321F0F201E81B47
:100FC000F90BCF019F938F9326ED822E21E0922E75
:100FD0009F928F921F921F920E94AD020F900F90CE
:100FE0000F900F900F900F90D80116962C918F852F
:100FF0009889222321F0F201E81BF90BCF019F937E
:101000008F9394EE892E91E0992E9F928F921F924A
:101010001F920E94AD020F900F900F900F900F90B3
:101020000F90D80116962C9189899A89222321F054
:10103000F201E81BF90BCF019F938F9382EF882E6B
:1010400081E0982E9F928F921F921F920E94AD0274
:101050000F900F900F900F900F900F90D801169651
:101060008C916D857E85882321F0F201E61BF70BBC
:10107000BF01D8018C910E943701F80186816F85EC
:101080007889882321F04201861A970AB401D80191
:1010900012968C910E943701F801868169897A89BC
:1010A000882321F04201861A970AB401D8011496C8
:1010B0008C910E943701F80110AA11AA56CDE5E1E2
:1010C000F6E01382128288EE93E0A0E0B0E0848321
:1010D0009583A683B7838BE091E09183808385EC31
:1010E00090E09587848784EC90E09787868780ECF2
:1010F00090E0918B808B81EC90E0938B828B82ECE3
:1011000090E0958B848B86EC90E0978B868B118E8C
:10111000128E138E148E0895E89409C097FB3EF446
:1011200090958095709561957F4F8F4F9F4F992334
:10113000A9F0F92F96E9BB279395F69587957795B2
:101140006795B795F111F8CFFAF4BB0F11F460FF72
:101150001BC06F5F7F4F8F4F9F4F16C0882311F0CA
:1011600096E911C0772321F09EE8872F762F05C0DE
:10117000662371F096E8862F70E060E02AF09A9579
:10118000660F771F881FDAF7880F9695879597F96E
:101190000895990F0008550FAA0BE0E8FEEF161608
:1011A0001706E807F907C0F012161306E407F5075B
:1011B00098F0621B730B840B950B39F40A2661F0CF
:1011C000232B242B252B21F408950A2609F4A14072
:1011D000A6958FEF811D811D08950E9400090C9432
:1011E00071090E94630938F00E946A0920F0952372
:1011F00011F00C945A090C94600911240C94A5095F
:101200000E94820970F3959FC1F3950F50E0551F1E
:10121000629FF001729FBB27F00DB11D639FAA274B
:10122000F00DB11DAA1F649F6627B00DA11D661F9A
:10123000829F2227B00DA11D621F739FB00DA11DBB
:10124000621F839FA00D611D221F749F3327A00D75
:10125000611D231F849F600D211D822F762F6A2F11
:1012600011249F5750409AF0F1F088234AF0EE0F76
:10127000FF1FBB1F661F771F881F91505040A9F7A3
:101280009E3F510580F00C945A090C94A5095F3FCC
:10129000E4F3983ED4F3869577956795B795F795DF
:1012A000E7959F5FC1F7FE2B880F911D9695879557
:1012B00097F9089597F99F6780E870E060E00895D6
:1012C0009FEF80EC089500240A941616170618065E
:1012D0000906089500240A9412161306140605063A
:1012E0000895092E0394000C11F4882352F0BB0FCB
:1012F00040F4BF2B11F460FF04C06F5F7F4F8F4F2E
:101300009F4F089557FD9058440F551F59F05F3F68
:1013100071F04795880F97FB991F61F09F3F79F017
:1013200087950895121613061406551FF2CF469599
:10133000F1DF08C0161617061806991FF1CF86951B
:101340007105610508940895E894BB2766277727FF
:10135000CB0197F908952F923F924F925F926F922F
:101360007F928F929F92AF92BF92CF92DF92EF9235
:10137000FF920F931F93CF93DF93CDB7DEB7CA1BB6
:10138000DB0B0FB6F894DEBF0FBECDBF09942A88E1
:10139000398848885F846E847D848C849B84AA8489
:1013A000B984C884DF80EE80FD800C811B81AA8116
:1013B000B981CE0FD11D0FB6F894DEBF0FBECDBFE1
:1013C000ED0108955058BB27AA270E94FA090C94F2
:1013D00071090E94630938F00E946A0920F039F40B
:1013E0009F3F19F426F40C9460090EF4E095E7FB96
:1013F0000C945A09E92F0E94820958F3BA17620720
:1014000073078407950720F079F4A6F50C94A409D6
:101410000EF4E0950B2EBA2FA02D0B01B90190010F
:101420000C01CA01A0011124FF27591B99F0593F53
:1014300050F4503E68F11A16F040A22F232F342F9B
:101440004427585FF3CF469537952795A795F040E9
:101450005395C9F77EF41F16BA0B620B730B840BFE
:10146000BAF09150A1F0FF0FBB1F661F771F881FB6
:10147000C2F70EC0BA0F621F731F841F48F487950E
:1014800077956795B795F7959E3F08F0B0CF939500
:10149000880F08F09927EE0F9795879508950E9479
:1014A000630A0C9471090E946A0958F00E9463094A
:1014B00040F029F45F3F29F00C945A0951110C9423
:1014C000A5090C9460090E94820968F39923B1F37D
:1014D000552391F3951B550BBB27AA27621773075A
:1014E000840738F09F5F5F4F220F331F441FAA1FEE
:1014F000A9F335D00E2E3AF0E0E832D091505040AA
:10150000E695001CCAF72BD0FE2F29D0660F771F57
:10151000881FBB1F261737074807AB07B0E809F03D
:10152000BB0B802DBF01FF2793585F4F3AF09E3FC2
:10153000510578F00C945A090C94A5095F3FE4F327
:10154000983ED4F3869577956795B795F7959F5F05
:10155000C9F7880F911D9695879597F90895E1E051
:10156000660F771F881FBB1F621773078407BA07B0
:1015700020F0621B730B840BBA0BEE1F88F7E0950B
:1015800008950E94C80A6894B1110C94A5090895A1
:101590000E948A0988F09F5798F0B92F9927B75170
:1015A000B0F0E1F0660F771F881F991F1AF0BA9507
:1015B000C9F714C0B13091F00E94A409B1E00895B8
:1015C0000C94A409672F782F8827B85F39F0B93FAA
:1015D000CCF3869577956795B395D9F73EF49095BA
:1015E0008095709561957F4F8F4F9F4F08950E9412
:1015F000C90808F48FEF0895EE0FFF1F0590F491CE
:10160000E02D09940F931F93CF93DF9382309105C0
:1016100010F482E090E0E091B406F091B50630E07D
:1016200020E0B0E0A0E0309799F42115310509F4ED
:101630004AC0281B390B24303105D8F58A819B819B
:101640006115710589F1FB0193838283FE0111C04D
:10165000408151810281138148175907E0F04817F2
:10166000590799F4109761F012960C9312971396FC
:101670001C933296CF01DF91CF911F910F91089566
:101680000093B4061093B506F4CF2115310551F03F
:101690004217530738F0A901DB019A01BD01DF01B0
:1016A000F801C1CFEF01F9CF9093B5068093B4064E
:1016B000CDCFFE01E20FF31F8193919322503109A8
:1016C00039832883D7CF2091B2063091B306232BDC
:1016D00041F420910301309104013093B30620932B
:1016E000B20620910101309102012115310541F42A
:1016F0002DB73EB74091050150910601241B350BD3
:10170000E091B206F091B306E217F307A0F42E1BA6
:101710003F0B2817390778F0AC014E5F5F4F241755
:10172000350748F04E0F5F1F5093B3064093B20643
:10173000819391939FCFF0E0E0E09CCFCF93DF9334
:101740000097E9F0FC01329713821282A091B4064F
:10175000B091B506ED0130E020E01097A1F42081B2
:101760003181820F931F2091B2063091B306281762
:10177000390709F061C0F093B306E093B206DF9138
:10178000CF910895EA01CE17DF07E8F54A815B8122
:101790009E0141155105B1F7E901FB83EA834991A7
:1017A0005991C40FD51FEC17FD0761F48081918119
:1017B0000296840F951FE901998388838281938122
:1017C0009B838A83F0E0E0E012968D919C911397C1
:1017D0000097B9F52D913C911197CD010296820F9A
:1017E000931F2091B2063091B3062817390739F6B6
:1017F000309751F51092B5061092B406B093B30627
:10180000A093B206BCCFD383C28340815181840FA1
:10181000951FC817D90761F44E5F5F4F8881998182
:10182000480F591F518340838A819B819383828310
:101830002115310509F0B0CFF093B506E093B40659
:101840009ECFFD01DC01C0CF13821282D7CFB0E062
:10185000A0E0EDE2FCE00C94AD098C01009751F49E
:10186000CB010E94020B8C01C801CDB7DEB7E0E1CD
:101870000C94C909FC01E60FF71F9C0122503109A5
:10188000E217F30708F49DC0D901CD91DC911197BF
:10189000C617D70798F0C530D10530F3CE010497AD
:1018A0008617970708F3C61BD70B2297C193D193CE
:1018B0006D937C93CF010E949E0BD6CF5B01AC1A37
:1018C000BD0A4C018C0E9D1EA091B406B091B506C8
:1018D000512C412CF12CE12C109731F58091B2065E
:1018E0009091B3068815990509F05CC04616570615
:1018F00008F058C08091010190910201009741F4D5
:101900008DB79EB74091050150910601841B950B40
:10191000E817F90708F055C0F093B306E093B20654
:10192000F90171836083A0CF8D919C9111971296DC
:101930006C90129713967C901397A815B90559F5DA
:101940006C0142E0C40ED11CCA14DB0420F1AC01CE
:101950004A195B09DA011296159780F06282738248
:1019600051834083D9016D937C93E114F10471F0AC
:10197000D7011396FC93EE93129776CF22968C0F95
:101980009D1FF90191838083F301EFCFF093B5069A
:10199000E093B40669CF4816590608F42C017D017E
:1019A000D3019ACFCB010E94020B7C01009749F032
:1019B000AE01B8010E94E40CC8010E949E0B870191
:1019C00053CF10E000E050CFFB01DC0102C00190DA
:1019D0000D9241505040D8F70895FB01DC01019071
:1019E0000D920020E1F70895AEE0B0E0EAEFFCE0F0
:1019F0000C94B9090D891E898F89988D26E02C8356
:101A00001A83098397FF02C080E090E801979E83C4
:101A10008D83AE01455E5F4F698D7A8DCE01019653
:101A20000E94500D4D815E8157FD0AC02F8138857F
:101A3000421753070CF49A01020F131FF80110828A
:101A40002E96E4E00C94D509AEE0B0E0EAE2FDE0C9
:101A50000C94B9098C01FA0186E08C831A830983FE
:101A600077FF02C060E070E8615071097E836D838A
:101A7000A901BF01CE0101960E94500D4D815E81EA
:101A800057FD0AC02F813885421753070CF49A017D
:101A9000020F131FF80110822E96E4E00C94D50972
:101AA000ABE0B0E0E6E5FDE00C94AB097C013B0166
:101AB0008A01FC0117821682838181FFC8C1CE0191
:101AC00001965C01F7019381F30193FD859193FFEA
:101AD00081913F01882309F453C1853239F493FD84
:101AE000859193FF81913F01853229F4B70190E000
:101AF0000E94400FE7CF912C212C312CFFE1F315F0
:101B000038F08B3211F190F4803209F1833229F1EF
:101B100037FC3CC020ED280F2A3050F536FE20C09F
:101B20008AE0989E200D1124922E06C08D3291F0ED
:101B3000803371F7689430F8F30193FD859193FF3A
:101B400081913F018111DACF21C0689431F8689406
:101B500032F8F2CF689433F8EFCF689434F8ECCFD2
:101B6000EAE02E9E200D1124222E689435F8E4CF51
:101B70008E3229F436FC04C1689436F8DDCF8C36F9
:101B800019F4689437F8D8CF8836B1F2982F9F7D32
:101B900095549330E0F08336A1F18337C1F183355A
:101BA00009F063C02801F2E04F0E511CF801C0801B
:101BB000D180692D70E036FC02C06FEF7FEFC60167
:101BC0000E942A0F4C01689437F882010AC00C5F0A
:101BD0001F4FFFE3F98388248394912C6501E894D7
:101BE00037F833FE2DC0522C8114910471F5552025
:101BF00009F468CFB70180E290E00E94400F5A9448
:101C0000F6CFF801808189830E5F1F4FE4CF280152
:101C1000F2E04F0E511CF801C080D180692D70E0B8
:101C200036FC02C06FEF7FEFC6010E94350F4C01FA
:101C30008201D5CFB70180E290E00E94400F2A9444
:101C40002814190409F0B0F7CECFF60137FC8591BE
:101C500037FE81916F01B70190E00E94400F511053
:101C60005A94F1E08F1A9108BFCF843619F0893663
:101C700009F077C0F80137FE6BC060817181828105
:101C800093810C5F1F4FF32DFF763F2E97FF09C006
:101C900090958095709561957F4F8F4F9F4F689479
:101CA00037F82AE030E0A5010E94700FC82ECA184C
:101CB0008C2C432C36FE0CC0E89440F8C91440F438
:101CC00034FE05C032FC03C0F32DFE7E4F2E892C5E
:101CD00044FE95C0FE01EC0DF11D8081803309F0BA
:101CE00087C0242D297E422E842D8870582E43FCD7
:101CF00095C040FE8FC09C2C821418F42C0C922CA2
:101D0000981844FE91C0B70180E390E00E94400F14
:101D100042FE09C088E790E041FE02C088E590E0FD
:101D2000B7010E94400FC91408F48AC0CA94D12C8C
:101D30009FEFC91AD90ACA0CDB1CF60182916F0108
:101D4000B70190E00E94400FAC14BD04B1F74FCF33
:101D500060817181072E000C880B990B0E5F1F4F5D
:101D600092CFD32CE894D4F82AE030E0853739F1CB
:101D7000232D297FD22E8F3601F148F48835A9F022
:101D8000F701868197812B96E2E10C94C709803791
:101D900049F08837A9F7D4FE02C06894D2F820E150
:101DA00030E00DC06894D4F8F6CF34FE03C0822F23
:101DB0008660D82E20E132E002C028E030E0F80151
:101DC000D7FE0FC060817181828193810C5F1F4FAC
:101DD000A5010E94700FC82ECA183D2CE89437F850
:101DE00067CF6081718190E080E00E5F1F4FF0CF80
:101DF00042FC02C0839478CF8394839475CF842D62
:101E0000867809F471CFF6CFB70180E290E00E94A6
:101E1000400F83948214C0F3512C73CF522C581866
:101E2000821408F46ECFF8CF842D867809F47BCF26
:101E30008BE241FE80E247FC8DE2B70190E071CF7A
:101E4000B70180E390E00E94400F9A946CCF8FEF2F
:101E50009FEF99CFFC010590615070400110D8F7B9
:101E6000809590958E0F9F1F0895FC0161507040E2
:101E700001900110D8F7809590958E0F9F1F0895BF
:101E80000F931F93CF93DF93182F092FEB018B81B3
:101E900081FD09C01FEF0FEF812F902FDF91CF91B0
:101EA0001F910F91089582FF14C02E813F818C8174
:101EB0009D81281739073CF4E881F981CF0101960B
:101EC0009983888310838E819F8101969F838E835F
:101ED000E3CFE885F985812F0995892BA1F3DACF26
:101EE000FA01AA27283051F1203181F1E8946F934B
:101EF0006E7F6E5F7F4F8F4F9F4FAF4FB1E03ED0F1
:101F0000B4E03CD0670F781F891F9A1FA11D680F8E
:101F1000791F8A1F911DA11D6A0F711D811D911DC1
:101F2000A11D20D009F468943F912AE0269F112436
:101F30003019305D3193DEF6CF010895462F47709A
:101F4000405D4193B3E00FD0C9F7F6CF462F4F70F5
:101F5000405D4A3318F0495D31FD4052419302D053
:101F6000A9F7EACFB4E0A6959795879577956795F9
:101F7000BA95C9F700976105710508959B01AC01F9
:101F80000A2E06945795479537952795BA95C9F720
:101F9000620F731F841F951FA01D0895F894FFCF33
:101FA000FF0000B60680000000000033029301C06D
:101FB000018002F101CF01E3015B205D20007B2065
:101FC000253032582C20253032582C2025303258DC
:101FD000207D006F6E006F666600757000646F771D
:101FE0006E0055415254206F70656E65642C2069F7
:101FF0006E697469616C697A696E67204C4544202A
:1020000070696E73007570646174653A20256C7533
:1020100020287E256C752900666978656400626CED
:10202000696E6B0025733D25733A2025730070752A
:102030006C73650025733D25735B25645D3A20252F
:102040007300666162756C6F75730025733D25645E
:102050005B25645D3A202573006E6F206368616EB6
:102060006765210025730D0A00202020202573209C
:102070002D3E202573002020202020202020523AB1
:10208000202564002020202020202020473A2025E1
:1020900064002020202020202020423A20256400B7
:107E0000112484B714BE81FFF0D085E080938100F7
:107E100082E08093C00088E18093C10086E0809377
:107E2000C20080E18093C4008EE0C9D0259A86E02C
:107E300020E33CEF91E0309385002093840096BBD3
:107E4000B09BFECF1D9AA8958150A9F7CC24DD24C4
:107E500088248394B5E0AB2EA1E19A2EF3E0BF2EE7
:107E6000A2D0813461F49FD0082FAFD0023811F036
:107E7000013811F484E001C083E08DD089C08234E0
:107E800011F484E103C0853419F485E0A6D080C0E4
:107E9000853579F488D0E82EFF2485D0082F10E0AE
:107EA000102F00270E291F29000F111F8ED06801E7
:107EB0006FC0863521F484E090D080E0DECF843638
:107EC00009F040C070D06FD0082F6DD080E0C81688
:107ED00080E7D80618F4F601B7BEE895C0E0D1E017
:107EE00062D089930C17E1F7F0E0CF16F0E7DF06D8
:107EF00018F0F601B7BEE89568D007B600FCFDCFD4
:107F0000A601A0E0B1E02C9130E011968C91119780
:107F100090E0982F8827822B932B1296FA010C0160
:107F200087BEE89511244E5F5F4FF1E0A038BF0790
:107F300051F7F601A7BEE89507B600FCFDCF97BE46
:107F4000E89526C08437B1F42ED02DD0F82E2BD052
:107F50003CD0F601EF2C8F010F5F1F4F84911BD097
:107F6000EA94F801C1F70894C11CD11CFA94CF0C13
:107F7000D11C0EC0853739F428D08EE10CD085E9AC
:107F80000AD08FE07ACF813511F488E018D01DD067
:107F900080E101D065CF982F8091C00085FFFCCF94
:107FA0009093C60008958091C00087FFFCCF809118
:107FB000C00084FD01C0A8958091C6000895E0E648
:107FC000F0E098E1908380830895EDDF803219F02E
:107FD00088E0F5DFFFCF84E1DECF1F93182FE3DFCA
:107FE0001150E9F7F2DF1F91089580E0E8DFEE27F6
:047FF000FF270994CA
:027FFE00040479
:00000001FF
