:020000040000FA
:100000000C945C000C9479000C9479000C947900A9
:100010000C9479000C9479000C9479000C9479007C
:100020000C9479000C9479000C9479000C9479006C
:100030000C9479000C9479000C9479000C9479005C
:100040000C9487010C9479000C9479000C9479003D
:100050000C9479000C9479000C9479000C9479003C
:100060000C9479000C947900000000080002010053
:100070000003040700000000000000000000000072
:10008000250028002B0000000000240027002A0083
:10009000040404040404040402020202020203032E
:1000A0000303030301020408102040800102040836
:1000B000102001020408102011241FBECFEFD8E049
:1000C000DEBFCDBF11E0A0E0B1E0E0EEFEE002C097
:1000D00005900D92A830B107D9F721E0A8E0B1E072
:1000E00001C01D92A132B207E1F70E94D1010C9428
:1000F0006E070C94000090E0FC01EC55FF4F24913A
:1001000080579F4FFC018491882399F090E0880FDD
:10011000991FFC01EA57FF4FA591B491FC01E458E7
:10012000FF4F859194918FB7F894EC91E22BEC936B
:100130008FBF08958F929F92AF92BF92CF92DF921E
:10014000EF92FF927B01BC01990F880B990B0E94E3
:1001500027054B015C01B701FF0C880B990B0E942E
:1001600027059B01AC01C501B4010E94B80520E040
:1001700030E04FE753E40E947D046B017C0120E0F6
:1001800030E0A9010E94B30520E030E040E05FE3E9
:1001900087FD10C0C701B6010E9411040E94EF0440
:1001A000CB01FF90EF90DF90CF90BF90AF909F90EA
:1001B0008F900895C701B6010E941004EFCF90E020
:1001C000FC01E859FF4F2491FC01EC55FF4F34919D
:1001D000FC01E057FF4FE491EE23C9F0222339F0F0
:1001E000233001F1A8F4213019F1223029F1F0E097
:1001F000EE0FFF1FE458FF4FA591B4918FB7F8940D
:10020000EC91611126C030953E233C938FBF089539
:100210002730A9F02830C9F0243049F780918000B8
:100220008F7D03C0809180008F7780938000DFCF27
:1002300084B58F7784BDDBCF84B58F7DFBCF809174
:10024000B0008F778093B000D2CF8091B0008F7DC7
:10025000F9CF3E2BDACF1F93CF93DF93182FEB010B
:100260000E947B00209739F460E0812FDF91CF91CD
:100270001F910C94DF00CF3FD10511F461E0F5CF61
:10028000E12FF0E0E859FF4FE491E33031F140F421
:10029000E130B1F0E230E1F0C038D1057CF7E4CFD5
:1002A000E73029F1E83059F1E430B1F7809180006E
:1002B000806280938000D0938B00C0938A0004C03A
:1002C00084B5806884BDC7BDDF91CF911F9108952B
:1002D00084B5806284BDC8BDF7CF809180008068FE
:1002E00080938000D0938900C0938800EDCF8091E7
:1002F000B00080688093B000C093B300E5CF8091D8
:10030000B00080628093B000C093B400DDCF1F9234
:100310000F920FB60F9211242F933F938F939F93B9
:10032000AF93BF938091190190911A01A0911B0185
:10033000B0911C013091180123E0230F2D3758F59F
:100340000196A11DB11D209318018093190190936E
:100350001A01A0931B01B0931C018091140190918C
:100360001501A0911601B09117010196A11DB11DB3
:100370008093140190931501A0931601B093170177
:10038000BF91AF919F918F913F912F910F900FBE91
:100390000F901F90189526E8230F0296A11DB11DFE
:1003A000D2CF789484B5826084BD84B5816084BDE9
:1003B00085B5826085BD85B5816085BD80916E0003
:1003C000816080936E001092810080918100826034
:1003D0008093810080918100816080938100809171
:1003E00080008160809380008091B1008460809360
:1003F000B1008091B00081608093B00080917A005C
:10040000846080937A0080917A00826080937A0081
:1004100080917A00816080937A0080917A00806870
:1004200080937A001092C10082E390E00E94490616
:10043000EC0183E090E09983888325E030E03B8302
:100440002A8326E030E03D832C831E8298878F83A9
:100450008AE090E0A0E0B0E089879A87AB87BC870C
:1004600011E01D871F861E86198A188A1B8A1A8A20
:1004700080E88C8B1D8A1E8A1F8A188E198E1A8E10
:100480001B8E1C8E1D8E1F8E1E8E19A218A21BA2E3
:100490001AA21DA21CA21FA21EA219A618A61BA664
:1004A0001AA61DA61CA61FA61EA618AB19AB83E094
:1004B0000E947B008A810E947B008C810E947B00CD
:1004C0008F8198850297029708F41D8F81E08D87B0
:1004D000D0931301C0931201EE24EA94F12C7724F7
:1004E000739493E0692E20E0822E20E0922EC0913A
:1004F0001201D09113018D85882309F495C08FB71F
:10050000F8944091190150911A0160911B0170916A
:100510001C018FBF80910E0190910F01A0911001DD
:10052000B09111018A019B01081B190B2A0B3B0B8F
:1005300089859A85AB85BC85081719072A073B076B
:1005400008F472C040930E0150930F0160931001A4
:10055000709311018F8198858230910509F4B7C09D
:100560008330910509F40CC1019709F464C03E85FC
:100570002F85C888D9884A885B8888A9882309F488
:1005800053C00C8910E0832F922F8F3F910519F0F3
:1005900014F08FEF90E097FF02C090E080E0B80188
:1005A0000E949A005C01C6018F3F910519F014F07A
:1005B0008FEF90E097FF02C090E080E0B8010E94CA
:1005C0009A006C01C2018F3F910519F014F08FEF72
:1005D00090E097FF02C090E080E0B8010E949A008E
:1005E0008C018E81882321F0C7018A199B095C0147
:1005F000B50188810E942B018E81882321F057014B
:10060000AC18BD086501B6018A810E942B018E815C
:10061000882321F06701C01AD10A8601B8018C81B4
:100620000E942B0118AA19AA8114910409F45FCF22
:100630000E9400005CCF89A9882349F086E0FE0172
:100640003E96DE015E9601900D928A95E1F78091CB
:100650000D010091090110910A0120910B013091C7
:100660000C015A016B01A01AB10AC20AD30A960101
:100670008501882381F0498D5A8D6B8D7C8D0417FF
:10068000150726073707C0F4412C512CC12CD12C5B
:1006900030E020E072CFAD88BE88CF88D88C0A15B4
:1006A0001B052C053D0580F34093090150930A0179
:1006B00060930B0170930C01872580930D013E8D93
:1006C0002F8DC8A0D9A04AA05BA078AA56CF89A92F
:1006D000882349F086E0FE013E96DE019496019063
:1006E0000D928A95E1F7E09100016CA17DA18D8DBD
:1006F000082E000C990B4EA15FA128A539A5E7FF94
:1007000020C0681B790B7DA36CA3481B590B5FA30A
:100710004EA3281B390B39A728A7861797071CF467
:100720006230710524F5841795071CF44230510599
:10073000F4F4821793071CF422303105C4F4E1E08D
:1007400016C0680F791F7DA36CA3480F591F5FA3C4
:100750004EA3280F391F39A728A7681779073CF03F
:100760004817590724F0281739070CF0EFEFE093EA
:1007700000013CA12DA1CEA0DFA048A459A4A5CF83
:1007800089A9882349F086E0FE013E96DE019A960B
:1007900001900D928A95E1F7809108012D8D280F27
:1007A00080958535C8F4869DA00111245BA74AA7D2
:1007B000382F4DEF4303C001112481509F4F9DA757
:1007C0008CA71FA61EA6209308013AA52BA5CCA492
:1007D000DDA44EA45FA479CF8A3A90F48555682FA2
:1007E0003DEF3603A001112441505F4F5BA74AA79C
:1007F0001DA61CA6869DC00111249FA78EA7E3CF2E
:100800008A5A1BA61AA6869DA00111245DA74CA793
:10081000482F6DEF6403C001112481509F4FEDCF2D
:100820005058BB27AA270E9428040C9479050E94DF
:100830006B0538F00E94720520F039F49F3F19F4DF
:1008400026F40C9468050EF4E095E7FB0C94620521
:10085000E92F0E948A0558F3BA17620773078407C5
:10086000950720F079F4A6F50C94AC050EF4E0950C
:100870000B2EBA2FA02D0B01B90190010C01CA015A
:10088000A0011124FF27591B99F0593F50F4503E05
:1008900068F11A16F040A22F232F342F4427585FF7
:1008A000F3CF469537952795A795F0405395C9F70F
:1008B0007EF41F16BA0B620B730B840BBAF09150C7
:1008C000A1F0FF0FBB1F661F771F881FC2F70EC066
:1008D000BA0F621F731F841F48F487957795679539
:1008E000B795F7959E3F08F0B0CF9395880F08F025
:1008F0009927EE0F9795879508950E9491040C947F
:1009000079050E94720558F00E946B0540F029F4A9
:100910005F3F29F00C94620551110C94AD050C94C5
:1009200068050E948A0568F39923B1F3552391F372
:10093000951B550BBB27AA2762177307840738F04E
:100940009F5F5F4F220F331F441FAA1FA9F335D0AB
:100950000E2E3AF0E0E832D091505040E695001C5F
:10096000CAF72BD0FE2F29D0660F771F881FBB1F19
:10097000261737074807AB07B0E809F0BB0B802DF7
:10098000BF01FF2793585F4F3AF09E3F510578F023
:100990000C9462050C94AD055F3FE4F3983ED4F3EC
:1009A000869577956795B795F7959F5FC9F7880FF7
:1009B000911D9695879597F90895E1E0660F771F49
:1009C000881FBB1F621773078407BA0720F0621BDA
:1009D000730B840BBA0BEE1F88F7E09508950E9405
:1009E000F6046894B1110C94AD0508950E94920527
:1009F00088F09F5798F0B92F9927B751B0F0E1F0E0
:100A0000660F771F881F991F1AF0BA95C9F714C08F
:100A1000B13091F00E94AC05B1E008950C94AC05A2
:100A2000672F782F8827B85F39F0B93FCCF38695C8
:100A300077956795B395D9F73EF490958095709525
:100A400061957F4F8F4F9F4F0895E89409C097FBA2
:100A50003EF490958095709561957F4F8F4F9F4F95
:100A60009923A9F0F92F96E9BB279395F6958795D9
:100A700077956795B795F111F8CFFAF4BB0F11F49C
:100A800060FF1BC06F5F7F4F8F4F9F4F16C0882343
:100A900011F096E911C0772321F09EE8872F762F79
:100AA00005C0662371F096E8862F70E060E02AF0BA
:100AB0009A95660F771F881FDAF7880F96958795A6
:100AC00097F9089597F99F6780E870E060E00895CE
:100AD0009FEF80EC089500240A9416161706180656
:100AE0000906089500240A94121613061406050632
:100AF0000895092E0394000C11F4882352F0BB0FC3
:100B000040F4BF2B11F460FF04C06F5F7F4F8F4F25
:100B10009F4F089557FD9058440F551F59F05F3F60
:100B200071F04795880F97FB991F61F09F3F79F00F
:100B300087950895121613061406551FF2CF469591
:100B4000F1DF08C0161617061806991FF1CF869513
:100B50007105610508940895E894BB2766277727F7
:100B6000CB0197F908950E94250608F48FEF0895A8
:100B70000E94CB050C9479050E946B0538F00E9409
:100B8000720520F0952311F00C9462050C94680511
:100B900011240C94AD050E948A0570F3959FC1F352
:100BA000950F50E0551F629FF001729FBB27F00D1B
:100BB000B11D639FAA27F00DB11DAA1F649F662770
:100BC000B00DA11D661F829F2227B00DA11D621FBF
:100BD000739FB00DA11D621F839FA00D611D221F79
:100BE000749F3327A00D611D231F849F600D211D5D
:100BF000822F762F6A2F11249F5750409AF0F1F0E0
:100C000088234AF0EE0FFF1FBB1F661F771F881F48
:100C100091505040A9F79E3F510580F00C94620519
:100C20000C94AD055F3FE4F3983ED4F38695779539
:100C30006795B795F795E7959F5FC1F7FE2B880FEE
:100C4000911D9695879597F90895990F0008550F6E
:100C5000AA0BE0E8FEEF16161706E807F907C0F042
:100C600012161306E407F50798F0621B730B840B4A
:100C7000950B39F40A2661F0232B242B252B21F424
:100C800008950A2609F4A140A6958FEF811D811DC4
:100C900008950F931F93CF93DF938230910510F443
:100CA00082E090E0E0911F01F091200130E020E02F
:100CB000B0E0A0E0309799F42115310509F44AC05D
:100CC000281B390B24303105D8F58A819B816115A9
:100CD000710589F1FB0193838283FE0111C040817C
:100CE00051810281138148175907E0F048175907CD
:100CF00099F4109761F012960C93129713961C9327
:100D00003296CF01DF91CF911F910F9108950093FB
:100D10001F0110932001F4CF2115310551F0421726
:100D2000530738F0A901DB019A01BD01DF01F80189
:100D3000C1CFEF01F9CF9093200180931F01CDCF58
:100D4000FE01E20FF31F8193919322503109398301
:100D50002883D7CF20911D0130911E01232B41F410
:100D6000209103013091040130931E0120931D0155
:100D700020910101309102012115310541F42DB777
:100D80003EB74091050150910601241B350BE091BF
:100D90001D01F0911E01E217F307A0F42E1B3F0B7B
:100DA0002817390778F0AC014E5F5F4F24173507DD
:100DB00048F04E0F5F1F50931E0140931D01819319
:100DC00091939FCFF0E0E0E09CCFCF93DF9300972B
:100DD000E9F0FC01329713821282A0911F01B091B9
:100DE0002001ED0130E020E01097A1F42081318155
:100DF000820F931F20911D0130911E012817390782
:100E000009F061C0F0931E01E0931D01DF91CF91C5
:100E10000895EA01CE17DF07E8F54A815B819E015C
:100E200041155105B1F7E901FB83EA8349915991D5
:100E3000C40FD51FEC17FD0761F4808191810296E4
:100E4000840F951FE90199838883828193819B8315
:100E50008A83F0E0E0E012968D919C9113970097C1
:100E6000B9F52D913C911197CD010296820F931FF8
:100E700020911D0130911E012817390739F630974E
:100E800051F51092200110921F01B0931E01A09302
:100E90001D01BCCFD383C28340815181840F951F34
:100EA000C817D90761F44E5F5F4F88819981480F59
:100EB000591F518340838A819B81938382832115AB
:100EC000310509F0B0CFF0932001E0931F019ECFD0
:100ED000FD01DC01C0CF13821282D7CFF894FFCF7F
:080EE000FF0000210180000069
:107E0000112484B714BE81FFF0D085E080938100F7
:107E100082E08093C00088E18093C10086E0809377
:107E2000C20080E18093C4008EE0C9D0259A86E02C
:107E300020E33CEF91E0309385002093840096BBD3
:107E4000B09BFECF1D9AA8958150A9F7CC24DD24C4
:107E500088248394B5E0AB2EA1E19A2EF3E0BF2EE7
:107E6000A2D0813461F49FD0082FAFD0023811F036
:107E7000013811F484E001C083E08DD089C08234E0
:107E800011F484E103C0853419F485E0A6D080C0E4
:107E9000853579F488D0E82EFF2485D0082F10E0AE
:107EA000102F00270E291F29000F111F8ED06801E7
:107EB0006FC0863521F484E090D080E0DECF843638
:107EC00009F040C070D06FD0082F6DD080E0C81688
:107ED00080E7D80618F4F601B7BEE895C0E0D1E017
:107EE00062D089930C17E1F7F0E0CF16F0E7DF06D8
:107EF00018F0F601B7BEE89568D007B600FCFDCFD4
:107F0000A601A0E0B1E02C9130E011968C91119780
:107F100090E0982F8827822B932B1296FA010C0160
:107F200087BEE89511244E5F5F4FF1E0A038BF0790
:107F300051F7F601A7BEE89507B600FCFDCF97BE46
:107F4000E89526C08437B1F42ED02DD0F82E2BD052
:107F50003CD0F601EF2C8F010F5F1F4F84911BD097
:107F6000EA94F801C1F70894C11CD11CFA94CF0C13
:107F7000D11C0EC0853739F428D08EE10CD085E9AC
:107F80000AD08FE07ACF813511F488E018D01DD067
:107F900080E101D065CF982F8091C00085FFFCCF94
:107FA0009093C60008958091C00087FFFCCF809118
:107FB000C00084FD01C0A8958091C6000895E0E648
:107FC000F0E098E1908380830895EDDF803219F02E
:107FD00088E0F5DFFFCF84E1DECF1F93182FE3DFCA
:107FE0001150E9F7F2DF1F91089580E0E8DFEE27F6
:047FF000FF270994CA
:027FFE00040479
:00000001FF
