:020000040000FA
:100000000C945D000C9485000C9485000C94850084
:100010000C9485000C9485000C9485000C9485004C
:100020000C9485000C9485000C9485000C9485003C
:100030000C9485000C9485000C9485000C9485002C
:100040000C94CB020C9485000C943B030C94150388
:100050000C9485000C9485000C9485000C9485000C
:100060000C9485000C94850000000008000201003B
:100070000003040700000000000000000000000072
:10008000250028002B0000000000240027002A0083
:10009000040404040404040402020202020203032E
:1000A0000303030301020408102040800102040836
:1000B0001020010204081020EC0611241FBECFEF0F
:1000C000D8E0DEBFCDBF11E0A0E0B1E0E0ECFAE1A6
:1000D00002C005900D92A23DB107D9F726E0A2ED2E
:1000E000B1E001C01D92A838B207E1F710E0CDE5FC
:1000F000D0E004C02197FE010E945209CC35D107FF
:10010000C9F70E946D030C945E0D0C94000090E002
:10011000FC01EC55FF4F249180579F4FFC018491C7
:10012000882399F090E0880F991FFC01EA57FF4F50
:10013000A591B491FC01E458FF4F859194918FB73C
:10014000F894EC91E22BEC938FBF08958F929F92DD
:10015000AF92BF92CF92DF92EF92FF927B01BC01F0
:10016000990F880B990B0E9430084B015C01B70175
:10017000FF0C880B990B0E9430089B01AC01C50154
:10018000B4010E94C10820E030E04FE753E40E9430
:1001900086076B017C0120E030E0A9010E94BC08C9
:1001A00020E030E040E05FE387FD10C0C701B6010A
:1001B0000E941A070E94F807CB01FF90EF90DF9092
:1001C000CF90BF90AF909F908F900895C701B601D8
:1001D0000E941907EFCF90E0FC01E859FF4F2491EE
:1001E000FC01EC55FF4F3491FC01E057FF4FE491C7
:1001F000EE23C9F0222339F0233001F1A8F4213095
:1002000019F1223029F1F0E0EE0FFF1FE458FF4F03
:10021000A591B4918FB7F894EC91611126C03095F7
:100220003E233C938FBF08952730A9F02830C9F0B2
:10023000243049F7809180008F7D03C08091800039
:100240008F7780938000DFCF84B58F7784BDDBCF3D
:1002500084B58F7DFBCF8091B0008F778093B00005
:10026000D2CF8091B0008F7DF9CF3E2BDACF1F9394
:10027000CF93DF93182FEB010E948700209739F46A
:1002800060E0812FDF91CF911F910C94EB00CF3F65
:10029000D10511F461E0F5CFE12FF0E0E859FF4F0F
:1002A000E491E33031F140F4E130B1F0E230E1F0DB
:1002B000C038D1057CF7E4CFE73029F1E83059F1B7
:1002C000E430B1F780918000806280938000D09309
:1002D0008B00C0938A0004C084B5806884BDC7BD0C
:1002E000DF91CF911F91089584B5806284BDC8BD10
:1002F000F7CF80918000806880938000D093890040
:10030000C0938800EDCF8091B00080688093B000EA
:10031000C093B300E5CF8091B00080628093B000BD
:10032000C093B400DDCFAF92BF92CF92DF92EF9235
:10033000FF920F931F93CF93DF936C017B018B018F
:10034000040F151FEB015E01AE18BF08C017D107DF
:1003500059F06991D601ED91FC910190F081E02D69
:10036000C6010995892B79F7C501DF91CF911F91BE
:100370000F91FF90EF90DF90CF90BF90AF900895D6
:10038000FC01538D448D252F30E0842F90E0821B9B
:10039000930B541710F0CF96089501970895FC0120
:1003A000918D828D981761F0A28DAE0FBF2FB11D78
:1003B0005D968C91928D9F5F9F73928F90E00895D0
:1003C0008FEF9FEF0895FC01918D828D981731F08A
:1003D000828DE80FF11D858D90E008958FEF9FEFDE
:1003E0000895FC01918D228D892F90E0805C9F4FB4
:1003F000821B91098F739927089587EE95E00E94DB
:10040000F10121E0892B09F420E0822F089580E09A
:1004100090E0892B29F00E94FD0181110C940000CD
:100420000895FC01A48DA80FB92FB11DA35ABF4F89
:100430002C91848D90E001968F739927848FA689E3
:10044000B7892C93A089B1898C91837080648C9337
:10045000938D848D981306C00288F389E02D8081E6
:100460008F7D80830895EF92FF920F931F93CF9318
:10047000DF93EC0181E0888F9B8D8C8D98131AC0DF
:10048000E889F989808185FF15C09FB7F894EE89C6
:10049000FF896083E889F989808183708064808323
:1004A0009FBF81E090E0DF91CF911F910F91FF906E
:1004B000EF900895F62E0B8D10E00F5F1F4F0F7316
:1004C0001127E02E8C8D8E110CC00FB607FCFACFD1
:1004D000E889F989808185FFF5CFCE010E9411025C
:1004E000F1CFEB8DEC0FFD2FF11DE35AFF4FF082A2
:1004F0009FB7F8940B8FEA89FB8980818062CFCF08
:10050000CF93DF93EC01888D8823B9F0AA89BB894A
:10051000E889F9898C9185FD03C0808186FD0DC035
:100520000FB607FCF7CF8C9185FFF2CF808185FF56
:10053000EDCFCE010E941102E9CFDF91CF91089556
:10054000FC0101900020E9F73197AF01481B590BDE
:10055000BC0187EE95E00C949301CF93DF93CDB768
:10056000DEB79E01275F3F4F4F81588560E074E002
:1005700087EE91E00E947D0A89E191E00E94A0024D
:1005800087EE91E00E94A00285EA91E00E94A0021D
:10059000DF91CF9108951F920F920FB60F92112401
:1005A0002F933F938F939F93AF93BF938091E301DA
:1005B0009091E401A091E501B091E6013091E20152
:1005C00023E0230F2D3758F50196A11DB11D20936F
:1005D000E2018093E3019093E401A093E501B093DD
:1005E000E6018091DE019091DF01A091E001B091E0
:1005F000E1010196A11DB11D8093DE019093DF0101
:10060000A093E001B093E101BF91AF919F918F91D1
:100610003F912F910F900FBE0F901F90189526E8D5
:10062000230F0296A11DB11DD2CF1F920F920FB6BC
:100630000F9211242F933F934F935F936F937F9368
:100640008F939F93AF93BF93EF93FF9387EE95E0C4
:100650000E941102FF91EF91BF91AF919F918F91F5
:100660007F916F915F914F913F912F910F900FBEAE
:100670000F901F9018951F920F920FB60F92112492
:100680002F938F939F93EF93FF93E091F705F09152
:10069000F8058081E091FD05F091FE0582FD1BC00B
:1006A0009081809100068F5F8F73209101068217E1
:1006B00041F0E0910006F0E0E951FA4F958F809308
:1006C0000006FF91EF919F918F912F910F900FBE98
:1006D0000F901F9018958081F4CF789484B5826034
:1006E00084BD84B5816084BD85B5826085BD85B5D6
:1006F000816085BD80916E00816080936E00109254
:1007000081008091810082608093810080918100CE
:10071000816080938100809180008160809380005F
:100720008091B10084608093B1008091B0008160BD
:100730008093B00080917A00846080937A008091E9
:100740007A00826080937A0080917A008160809341
:100750007A0080917A00806880937A001092C100BC
:1007600082E390E00E945809EC0183E090E09983D5
:10077000888325E030E03B832A8326E030E03D8318
:100780002C831E8298878F8384EF91E0A0E0B0E0F5
:1007900089879A87AB87BC8711E01D871F861E86D5
:1007A000198A188A1B8A1A8A80E88C8B1D8A1E8AED
:1007B0001F8A188E198E1A8E1B8E1C8E1D8E1F8EF0
:1007C0001E8E19A218A21BA21AA21DA21CA21FA251
:1007D0001EA219A618A61BA61AA61DA61CA61FA611
:1007E0001EA618AB19ABE091F705F091F80582E071
:1007F0008083E091F305F091F4051082E091F50516
:10080000F091F60580E180831092FF05E091FB05F1
:10081000F091FC0586E08083E091F905F091FA05FE
:10082000808180618083E091F905F091FA058081F3
:1008300088608083E091F905F091FA0580818068F5
:100840008083E091F905F091FA0580818F7D8083A6
:100850008DE291E09F938F9382E791E09F938F9336
:100860001F921F920E94AD0288810E9487008A8198
:100870000E9487008C810E9487000F900F900F903C
:100880000F900F900F908F8198850297029708F430
:100890001D8F81E08D87D093DD01C093DC010FEFC8
:1008A00010E035E7432E31E0532E4BE7642E41E054
:1008B000742EC091DC01D091DD018D85882309F46F
:1008C00083C08FB7F894C090E301D090E401E0902A
:1008D000E501F090E6018FBF8091D8019091D90198
:1008E000A091DA01B091DB0146015701881A990AFB
:1008F000AA0ABB0AD501C40149855A856B857C8546
:1009000084179507A607B70708F45EC0C092D80100
:10091000D092D901E092DA01F092DB01BF93AF925D
:100920009F938F92FF92EF92DF92CF9220E5A22EBB
:1009300021E0B22EBF92AF921F921F920E94AD0291
:100940004DB75EB7445F5F4F0FB6F8945EBF0FBE02
:100950004DBF8F8198858230910509F4AEC08330F8
:10096000910509F426C10197E1F183E691E09F9397
:100970008F9382E791E09F938F931F921F920E9423
:10098000AD023E852F85C888D9882A883B880F907C
:100990000F900F900F900F900F9088A981117CC13C
:1009A00068E971E07F936F9393EA892E91E0992E25
:1009B0009F928F921F921F920E94AD020F900F90F4
:1009C0000F900F900F900F9080E090E0892B09F42A
:1009D00070CF0E94FD01882309F463CF0E940000BC
:1009E00060CF89A9882349F086E0FE013E96DE01AA
:1009F0005E9601900D928A95E1F78091D701409122
:100A0000D3015091D4016091D5017091D601460176
:100A10005701841A950AA60AB70AB501A4018823CA
:100A200081F0C98CDA8CEB8CFC8C4C155D056E0565
:100A30007F05C0F4212C312CC12CD12C30E020E0DA
:100A4000ACCF8D889E88AF88B88C481559056A054B
:100A50007B0580F3C092D301D092D401E092D501FE
:100A6000F092D60191E089278093D701882311F174
:100A70008EE191E09F938F9389E691E09F938F930E
:100A80008FE691E09F938F931F921F920E94AD0279
:100A90003E8D2F8DC8A0D9A02AA03BA081E088ABB5
:100AA0004DB75EB7485F5F4F0FB6F8945EBF0FBE9D
:100AB0004DBF73CF81E291E0DDCF89A9882349F052
:100AC00086E0FE013E96DE01949601900D928A9595
:100AD000E1F7E09100016CA17DA1FD8D8F2F0F2E1C
:100AE000000C990B4EA15FA128A539A5E7FF29C0ED
:100AF000681B790B7DA36CA3481B590B5FA34EA306
:100B0000281B390B39A728A7861797071CF46230D2
:100B1000710594F4841795071CF44230510564F470
:100B20008217930734F021E02093000125E231E0A1
:100B300022C022303105BCF3E09300011E16B4F34D
:100B400018C0680F791F7DA36CA3480F591F5FA3BE
:100B50004EA3280F391F39A728A76817790764F310
:100B6000481759074CF32817390734F32FEF209310
:100B7000000128E231E09F93FF933F932F935F9210
:100B80004F927F926F921F921F920E94AD023CA1E2
:100B90002DA1CEA0DFA028A439A481E088AB6DB739
:100BA0007EB7665F7F4F0FB6F8947EBF0FBE6DBFF6
:100BB000F4CE89A9882349F086E0FE013E96DE0145
:100BC0009A9601900D928A95E1F72D8D8091D20130
:100BD000322F380F80958535C8F573E0879FA001C7
:100BE00011245BA74AA7482F5DEF5403C0011124CD
:100BF00081509F4F9DA78CA71FA61EA63093D201A0
:100C0000822F022E000C990B9F932F931F923F93DC
:100C100065E871E07F936F938EE891E09F938F93E7
:100C20001F921F920E94AD023AA52BA5CCA4DDA471
:100C30002EA43FA481E088AB4DB75EB7465F5F4FFF
:100C40000FB6F8945EBF0FBE4DBFA7CE8A3A98F498
:100C50008555682F7DEF7603A001112441505F4F29
:100C60005BA74AA71DA61CA643E0849FC0011124D0
:100C70009FA78EA7C3CF8A5A1BA61AA663E0869F9A
:100C8000A00111245DA74CA7782F4DEF4703C001A9
:100C9000112481509F4FECCFEC88F12C832F922FA1
:100CA0008F3F910519F014F08FEF90E097FF02C08D
:100CB00090E080E0B7010E94A6005C01C6018F3F72
:100CC000910519F014F08FEF90E097FF02C090E0CB
:100CD00080E0B7010E94A6006C01C1018F3F910521
:100CE00019F014F08FEF90E097FF02C090E080E0E1
:100CF000B7010E94A6007C018E81882309F466C09A
:100D0000C8018A199B099F938F9328EA31E03F938A
:100D10002F931F921F920E94AD020F900F900F9081
:100D20000F900F900F908E81882309F451C0C80155
:100D30008C199D099F938F9366EB71E07F936F935E
:100D40001F921F920E94AD020F900F900F900F9074
:100D50000F900F908E818823E9F1C8018E199F09A9
:100D60009F938F9384EC882E81E0982E9F928F9290
:100D70001F921F920E94AD020F900F900F900F9044
:100D80000F900F908E81882321F0A8014A195B09EA
:100D90005A01B50188810E9437018E81882321F094
:100DA000B8016C197D096B01B6018A810E94370177
:100DB0008E81882321F0C8018E199F097C01B7011B
:100DC0008C810E94370118AA19AAFECDC5019BCFBC
:100DD000C601B0CFC701C4CFE7EEF5E0138212829F
:100DE00088EE93E0A0E0B0E084839583A683B78388
:100DF0008BE091E09183808385EC90E095878487F8
:100E000084EC90E09787868780EC90E0918B808BD4
:100E100081EC90E0938B828B82EC90E0958B848BBD
:100E200086EC90E0978B868B118E128E138E148E2B
:100E300008955058BB27AA270E9431070C948208B6
:100E40000E94740838F00E947B0820F039F49F3F1C
:100E500019F426F40C9471080EF4E095E7FB0C9459
:100E60006B08E92F0E94930858F3BA1762077307BB
:100E70008407950720F079F4A6F50C94B5080EF4D4
:100E8000E0950B2EBA2FA02D0B01B90190010C019A
:100E9000CA01A0011124FF27591B99F0593F50F4B2
:100EA000503E68F11A16F040A22F232F342F44270A
:100EB000585FF3CF469537952795A795F040539502
:100EC000C9F77EF41F16BA0B620B730B840BBAF0D2
:100ED0009150A1F0FF0FBB1F661F771F881FC2F73D
:100EE0000EC0BA0F621F731F841F48F48795779551
:100EF0006795B795F7959E3F08F0B0CF9395880F0B
:100F000008F09927EE0F9795879508950E949A0704
:100F10000C9482080E947B0858F00E94740840F0EC
:100F200029F45F3F29F00C946B0851110C94B6081A
:100F30000C9471080E94930868F39923B1F3552328
:100F400091F3951B550BBB27AA27621773078407DC
:100F500038F09F5F5F4F220F331F441FAA1FA9F372
:100F600035D00E2E3AF0E0E832D091505040E69560
:100F7000001CCAF72BD0FE2F29D0660F771F881FC1
:100F8000BB1F261737074807AB07B0E809F0BB0BB4
:100F9000802DBF01FF2793585F4F3AF09E3F5105C8
:100FA00078F00C946B080C94B6085F3FE4F3983E1D
:100FB000D4F3869577956795B795F7959F5FC9F7B1
:100FC000880F911D9695879597F90895E1E0660F32
:100FD000771F881FBB1F621773078407BA0720F0AB
:100FE000621B730B840BBA0BEE1F88F7E095089514
:100FF0000E94FF076894B1110C94B60808950E94EE
:101000009B0888F09F5798F0B92F9927B751B0F0F7
:10101000E1F0660F771F881F991F1AF0BA95C9F77C
:1010200014C0B13091F00E94B508B1E008950C945D
:10103000B508672F782F8827B85F39F0B93FCCF310
:10104000869577956795B395D9F73EF490958095F9
:10105000709561957F4F8F4F9F4F0895E89409C019
:1010600097FB3EF490958095709561957F4F8F4FDB
:101070009F4F9923A9F0F92F96E9BB279395F695F1
:10108000879577956795B795F111F8CFFAF4BB0F6F
:1010900011F460FF1BC06F5F7F4F8F4F9F4F16C0D3
:1010A000882311F096E911C0772321F09EE8872F5D
:1010B000762F05C0662371F096E8862F70E060E019
:1010C0002AF09A95660F771F881FDAF7880F969592
:1010D000879597F9089597F99F6780E870E060E039
:1010E00008959FEF80EC089500240A9416161706C1
:1010F00018060906089500240A9412161306140609
:1011000005060895092E0394000C11F4882352F06B
:10111000BB0F40F4BF2B11F460FF04C06F5F7F4F23
:101120008F4F9F4F089557FD9058440F551F59F00A
:101130005F3F71F04795880F97FB991F61F09F3FC4
:1011400079F087950895121613061406551FF2CFED
:101150004695F1DF08C0161617061806991FF1CF3D
:1011600086957105610508940895E894BB27662764
:101170007727CB0197F908950E942E0908F48FEF85
:1011800008950E94D4080C9482080E94740838F0D4
:101190000E947B0820F0952311F00C946B080C94AE
:1011A000710811240C94B6080E94930870F3959F5F
:1011B000C1F3950F50E0551F629FF001729FBB274E
:1011C000F00DB11D639FAA27F00DB11DAA1F649FEA
:1011D0006627B00DA11D661F829F2227B00DA11D9D
:1011E000621F739FB00DA11D621F839FA00D611D23
:1011F000221F749F3327A00D611D231F849F600D44
:10120000211D822F762F6A2F11249F5750409AF06C
:10121000F1F088234AF0EE0FFF1FBB1F661F771FF8
:10122000881F91505040A9F79E3F510580F00C94C3
:101230006B080C94B6085F3FE4F3983ED4F38695B0
:1012400077956795B795F795E7959F5FC1F7FE2B63
:10125000880F911D9695879597F90895990F000825
:10126000550FAA0BE0E8FEEF16161706E807F90778
:10127000C0F012161306E407F50798F0621B730B13
:10128000840B950B39F40A2661F0232B242B252B94
:1012900021F408950A2609F4A140A6958FEF811D37
:1012A000811D0895EE0FFF1F0590F491E02D099424
:1012B0000F931F93CF93DF938230910510F482E058
:1012C00090E0E0918606F091870630E020E0B0E003
:1012D000A0E0309799F42115310509F44AC0281B84
:1012E000390B24303105D8F58A819B816115710550
:1012F00089F1FB0193838283FE0111C040815181FA
:101300000281138148175907E0F04817590799F4EB
:10131000109761F012960C93129713961C933296C5
:10132000CF01DF91CF911F910F9108950093860611
:1013300010938706F4CF2115310551F0421753075A
:1013400038F0A901DB019A01BD01DF01F801C1CF2D
:10135000EF01F9CF9093870680938606CDCFFE01EB
:10136000E20FF31F8193919322503109398328832F
:10137000D7CF2091840630918506232B41F420910C
:101380000301309104013093850620938406209157
:101390000101309102012115310541F42DB73EB70D
:1013A0004091050150910601241B350BE091840604
:1013B000F0918506E217F307A0F42E1B3F0B2817C8
:1013C000390778F0AC014E5F5F4F2417350748F0BE
:1013D0004E0F5F1F5093850640938406819391932F
:1013E0009FCFF0E0E0E09CCFCF93DF930097E9F050
:1013F000FC01329713821282A0918606B091870673
:10140000ED0130E020E01097A1F420813181820FBE
:10141000931F20918406309185062817390709F01B
:1014200061C0F0938506E0938406DF91CF91089523
:10143000EA01CE17DF07E8F54A815B819E0141157D
:101440005105B1F7E901FB83EA8349915991C40F32
:10145000D51FEC17FD0761F4808191810296840FFE
:10146000951FE90199838883828193819B838A8375
:10147000F0E0E0E012968D919C9113970097B9F5FA
:101480002D913C911197CD010296820F931F2091CF
:101490008406309185062817390739F6309751F5BB
:1014A0001092870610928606B0938506A093840654
:1014B000BCCFD383C28340815181840F951FC8174D
:1014C000D90761F44E5F5F4F88819981480F591F9A
:1014D000518340838A819B819383828321153105C7
:1014E00009F0B0CFF0938706E09386069ECFFD010A
:1014F000DC01C0CF13821282D7CFAEE0B0E0E3E8C8
:10150000FAE00C94350D8C01FA0186E08C831A8385
:10151000098377FF02C060E070E8615071097E8343
:101520006D83A901BF01CE0101960E94A90A4D81D8
:101530005E8157FD0AC02F813885421753070CF48E
:101540009A01020F131FF80110822E96E4E00C940A
:10155000510DABE0B0E0EFEAFAE00C94270D7C010E
:101560003B018A01FC0117821682838181FFC8C179
:10157000CE0101965C01F7019381F30193FD859102
:1015800093FF81913F01882309F453C1853239F4D7
:1015900093FD859193FF81913F01853229F4B70135
:1015A00090E00E94990CE7CF912C212C312CFFE187
:1015B000F31538F08B3211F190F4803209F1833257
:1015C00029F137FC3CC020ED280F2A3050F536FEBB
:1015D00020C08AE0989E200D1124922E06C08D32E4
:1015E00091F0803371F7689430F8F30193FD8591A1
:1015F00093FF81913F018111DACF21C0689431F8C6
:10160000689432F8F2CF689433F8EFCF689434F8E6
:10161000ECCFEAE02E9E200D1124222E689435F89E
:10162000E4CF8E3229F436FC04C1689436F8DDCF5D
:101630008C3619F4689437F8D8CF8836B1F2982FE1
:101640009F7D95549330E0F08336A1F18337C1F14B
:10165000833509F063C02801F2E04F0E511CF801F8
:10166000C080D180692D70E036FC02C06FEF7FEF43
:10167000C6010E94830C4C01689437F882010AC0AD
:101680000C5F1F4FFFE3F98388248394912C65013D
:10169000E89437F833FE2DC0522C8114910471F573
:1016A000552009F468CFB70180E290E00E94990CC0
:1016B0005A94F6CFF801808189830E5F1F4FE4CFE3
:1016C0002801F2E04F0E511CF801C080D180692D35
:1016D00070E036FC02C06FEF7FEFC6010E948E0CF7
:1016E0004C018201D5CFB70180E290E00E94990CB5
:1016F0002A942814190409F0B0F7CECFF60137FC6C
:10170000859137FE81916F01B70190E00E94990C9D
:1017100051105A94F1E08F1A9108BFCF843619F016
:10172000893609F077C0F80137FE6BC0608171819E
:10173000828193810C5F1F4FF32DFF763F2E97FF21
:1017400009C090958095709561957F4F8F4F9F4F01
:10175000689437F82AE030E0A5010E94C90CC82E31
:10176000CA188C2C432C36FE0CC0E89440F8C914DF
:1017700040F434FE05C032FC03C0F32DFE7E4F2E34
:10178000892C44FE95C0FE01EC0DF11D8081803353
:1017900009F087C0242D297E422E842D8870582E72
:1017A00043FC95C040FE8FC09C2C821418F42C0C76
:1017B000922C981844FE91C0B70180E390E00E94FB
:1017C000990C42FE09C088E790E041FE02C088E51E
:1017D00090E0B7010E94990CC91408F48AC0CA9419
:1017E000D12C9FEFC91AD90ACA0CDB1CF6018291D1
:1017F0006F01B70190E00E94990CAC14BD04B1F7E1
:101800004FCF60817181072E000C880B990B0E5F02
:101810001F4F92CFD32CE894D4F82AE030E08537DC
:1018200039F1232D297FD22E8F3601F148F48835E6
:10183000A9F0F701868197812B96E2E10C94430D84
:10184000803749F08837A9F7D4FE02C06894D2F8EF
:1018500020E130E00DC06894D4F8F6CF34FE03C028
:10186000822F8660D82E20E132E002C028E030E0EE
:10187000F801D7FE0FC060817181828193810C5F76
:101880001F4FA5010E94C90CC82ECA183D2CE89410
:1018900037F867CF6081718190E080E00E5F1F4F65
:1018A000F0CF42FC02C0839478CF8394839475CFA9
:1018B000842D867809F471CFF6CFB70180E290E0ED
:1018C0000E94990C83948214C0F3512C73CF522C34
:1018D0005818821408F46ECFF8CF842D867809F456
:1018E0007BCF8BE241FE80E247FC8DE2B70190E0C6
:1018F00071CFB70180E390E00E94990C9A946CCF6D
:101900008FEF9FEF99CFFC0105906150704001105F
:10191000D8F7809590958E0F9F1F0895FC01615018
:10192000704001900110D8F7809590958E0F9F1F01
:1019300008950F931F93CF93DF93182F092FEB0177
:101940008B8181FD09C01FEF0FEF812F902FDF9159
:10195000CF911F910F91089582FF14C02E813F8176
:101960008C819D81281739073CF4E881F981CF01EA
:1019700001969983888310838E819F8101969F832E
:101980008E83E3CFE885F985812F0995892BA1F313
:10199000DACFFA01AA27283051F1203181F1E894F9
:1019A0006F936E7F6E5F7F4F8F4F9F4FAF4FB1E052
:1019B0003ED0B4E03CD0670F781F891F9A1FA11D4D
:1019C000680F791F8A1F911DA11D6A0F711D811D4E
:1019D000911DA11D20D009F468943F912AE0269F13
:1019E00011243019305D3193DEF6CF010895462F72
:1019F0004770405D4193B3E00FD0C9F7F6CF462F53
:101A00004F70405D4A3318F0495D31FD40524193BB
:101A100002D0A9F7EACFB4E0A69597958795779578
:101A20006795BA95C9F700976105710508959B01FF
:101A3000AC010A2E06945795479537952795BA9588
:101A4000C9F7620F731F841F951FA01D08952F9261
:101A50003F924F925F926F927F928F929F92AF923E
:101A6000BF92CF92DF92EF92FF920F931F93CF938B
:101A7000DF93CDB7DEB7CA1BDB0B0FB6F894DEBF22
:101A80000FBECDBF09942A88398848885F846E8448
:101A90007D848C849B84AA84B984C884DF80EE8092
:101AA000FD800C811B81AA81B981CE0FD11D0FB69B
:101AB000F894DEBF0FBECDBFED010895F894FFCFBF
:101AC000FF0000880680000000000033029301C080
:101AD000018002F101CF01E3015B205D20006F6E08
:101AE000006F666600757000646F776E0055415236
:101AF00054206F70656E65642C20696E697469612D
:101B00006C697A696E67204C45442070696E730079
:101B10007570646174653A20256C7520287E256C8B
:101B2000752900666978656400626C696E6B0025D2
:101B3000733D25730070756C73650025733D2573C7
:101B40005B25645D00666162756C6F75730025735B
:101B50003D25645B25645D006E6F206368616E6780
:101B600065210025730D0A00202020202020202040
:101B7000523A202564002020202020202020473AAF
:101B8000202564002020202020202020423A2025EB
:021B90006400EF
:107E0000112484B714BE81FFF0D085E080938100F7
:107E100082E08093C00088E18093C10086E0809377
:107E2000C20080E18093C4008EE0C9D0259A86E02C
:107E300020E33CEF91E0309385002093840096BBD3
:107E4000B09BFECF1D9AA8958150A9F7CC24DD24C4
:107E500088248394B5E0AB2EA1E19A2EF3E0BF2EE7
:107E6000A2D0813461F49FD0082FAFD0023811F036
:107E7000013811F484E001C083E08DD089C08234E0
:107E800011F484E103C0853419F485E0A6D080C0E4
:107E9000853579F488D0E82EFF2485D0082F10E0AE
:107EA000102F00270E291F29000F111F8ED06801E7
:107EB0006FC0863521F484E090D080E0DECF843638
:107EC00009F040C070D06FD0082F6DD080E0C81688
:107ED00080E7D80618F4F601B7BEE895C0E0D1E017
:107EE00062D089930C17E1F7F0E0CF16F0E7DF06D8
:107EF00018F0F601B7BEE89568D007B600FCFDCFD4
:107F0000A601A0E0B1E02C9130E011968C91119780
:107F100090E0982F8827822B932B1296FA010C0160
:107F200087BEE89511244E5F5F4FF1E0A038BF0790
:107F300051F7F601A7BEE89507B600FCFDCF97BE46
:107F4000E89526C08437B1F42ED02DD0F82E2BD052
:107F50003CD0F601EF2C8F010F5F1F4F84911BD097
:107F6000EA94F801C1F70894C11CD11CFA94CF0C13
:107F7000D11C0EC0853739F428D08EE10CD085E9AC
:107F80000AD08FE07ACF813511F488E018D01DD067
:107F900080E101D065CF982F8091C00085FFFCCF94
:107FA0009093C60008958091C00087FFFCCF809118
:107FB000C00084FD01C0A8958091C6000895E0E648
:107FC000F0E098E1908380830895EDDF803219F02E
:107FD00088E0F5DFFFCF84E1DECF1F93182FE3DFCA
:107FE0001150E9F7F2DF1F91089580E0E8DFEE27F6
:047FF000FF270994CA
:027FFE00040479
:00000001FF
